{
  "contractName": "EthereumDIDRegistry",
  "abi": [
    {
      "constant": true,
      "inputs": [
        {
          "name": "",
          "type": "address"
        }
      ],
      "name": "owners",
      "outputs": [
        {
          "name": "",
          "type": "address"
        }
      ],
      "payable": false,
      "stateMutability": "view",
      "type": "function"
    },
    {
      "constant": true,
      "inputs": [
        {
          "name": "",
          "type": "address"
        }
      ],
      "name": "changed",
      "outputs": [
        {
          "name": "",
          "type": "uint256"
        }
      ],
      "payable": false,
      "stateMutability": "view",
      "type": "function"
    },
    {
      "inputs": [],
      "payable": false,
      "stateMutability": "nonpayable",
      "type": "constructor"
    },
    {
      "anonymous": false,
      "inputs": [
        {
          "indexed": true,
          "name": "identity",
          "type": "address"
        },
        {
          "indexed": false,
          "name": "keyType",
          "type": "string"
        },
        {
          "indexed": false,
          "name": "delegate",
          "type": "address"
        },
        {
          "indexed": false,
          "name": "validTo",
          "type": "uint256"
        },
        {
          "indexed": false,
          "name": "previousChange",
          "type": "uint256"
        }
      ],
      "name": "DIDKeyChanged",
      "type": "event"
    },
    {
      "constant": true,
      "inputs": [
        {
          "name": "identity",
          "type": "address"
        }
      ],
      "name": "identityOwner",
      "outputs": [
        {
          "name": "",
          "type": "address"
        }
      ],
      "payable": false,
      "stateMutability": "view",
      "type": "function"
    },
    {
      "constant": false,
      "inputs": [
        {
          "name": "identity",
          "type": "address"
        },
        {
          "name": "newOwner",
          "type": "address"
        }
      ],
      "name": "changeOwner",
      "outputs": [],
      "payable": false,
      "stateMutability": "nonpayable",
      "type": "function"
    }
  ],
  "bytecode": "0x6060604052341561000f57600080fd5b6105298061001e6000396000f300606060405260043610610062576000357c0100000000000000000000000000000000000000000000000000000000900463ffffffff168063022914a7146100675780638733d4e8146100e0578063f00d4b5d14610159578063f96d0f9f146101b1575b600080fd5b341561007257600080fd5b61009e600480803573ffffffffffffffffffffffffffffffffffffffff169060200190919050506101fe565b604051808273ffffffffffffffffffffffffffffffffffffffff1673ffffffffffffffffffffffffffffffffffffffff16815260200191505060405180910390f35b34156100eb57600080fd5b610117600480803573ffffffffffffffffffffffffffffffffffffffff16906020019091905050610231565b604051808273ffffffffffffffffffffffffffffffffffffffff1673ffffffffffffffffffffffffffffffffffffffff16815260200191505060405180910390f35b341561016457600080fd5b6101af600480803573ffffffffffffffffffffffffffffffffffffffff1690602001909190803573ffffffffffffffffffffffffffffffffffffffff169060200190919050506102c7565b005b34156101bc57600080fd5b6101e8600480803573ffffffffffffffffffffffffffffffffffffffff169060200190919050506102d6565b6040518082815260200191505060405180910390f35b60006020528060005260406000206000915054906101000a900473ffffffffffffffffffffffffffffffffffffffff1681565b6000806000808473ffffffffffffffffffffffffffffffffffffffff1673ffffffffffffffffffffffffffffffffffffffff16815260200190815260200160002060009054906101000a900473ffffffffffffffffffffffffffffffffffffffff16905060008173ffffffffffffffffffffffffffffffffffffffff161415156102bd578091506102c1565b8291505b50919050565b6102d28233836102ee565b5050565b60016020528060005260406000206000915090505481565b82826102f982610231565b73ffffffffffffffffffffffffffffffffffffffff168173ffffffffffffffffffffffffffffffffffffffff1614151561033257600080fd5b826000808773ffffffffffffffffffffffffffffffffffffffff1673ffffffffffffffffffffffffffffffffffffffff16815260200190815260200160002060006101000a81548173ffffffffffffffffffffffffffffffffffffffff021916908373ffffffffffffffffffffffffffffffffffffffff1602179055508473ffffffffffffffffffffffffffffffffffffffff167fed5c0824f50fd3260095e32823733af6bb1a79abc1f99d8481165df12c011c74846000600160008a73ffffffffffffffffffffffffffffffffffffffff1673ffffffffffffffffffffffffffffffffffffffff1681526020019081526020016000205460405180806020018573ffffffffffffffffffffffffffffffffffffffff1673ffffffffffffffffffffffffffffffffffffffff168152602001848152602001838152602001828103825260058152602001807f6f776e657200000000000000000000000000000000000000000000000000000081525060200194505050505060405180910390a243600160008773ffffffffffffffffffffffffffffffffffffffff1673ffffffffffffffffffffffffffffffffffffffff1681526020019081526020016000208190555050505050505600a165627a7a72305820841edd93e21be01f160fee57f7cd05def98e91779fa84d7e86cf8910c04630000029",
  "source": "pragma solidity ^0.4.4;\n\ncontract EthereumDIDRegistry {\n\n  mapping(address => address) public owners;\n  mapping(address => uint) public changed;\n\n  modifier onlyOwner(address identity, address actor) {\n    require (actor == identityOwner(identity));\n    _;\n  }\n\n  event DIDKeyChanged(\n    address indexed identity,\n    string keyType,\n    address delegate,\n    uint validTo,\n    uint previousChange\n  );\n\n  function EthereumDIDRegistry() public {\n  }\n\n  function identityOwner(address identity) public view returns(address) {\n     address owner = owners[identity];\n     if (owner != 0x0) {\n       return owner;\n     }\n     return identity;\n  }\n\n  function changeOwner(address identity, address actor, address newOwner) internal onlyOwner(identity, actor) {\n    owners[identity] = newOwner;\n    DIDKeyChanged(identity, \"owner\", newOwner, 0, changed[identity]);\n    changed[identity] = block.number;\n  }\n\n  function changeOwner(address identity, address newOwner) public {\n    changeOwner(identity, msg.sender, newOwner);\n  }\n}\n",
  "sourcePath": "/Users/pelleb/code/consensys/ethereum-did-registry/contracts/EthereumDIDRegistry.sol",
  "compiler": {
    "name": "solc",
    "version": "0.4.19+commit.c4cbbb05.Emscripten.clang"
  },
  "schemaVersion": "1.0.1",
  "updatedAt": "2018-02-25T17:45:33.911Z"
}