{
  "contractName": "EthereumDIDRegistry",
  "abi": [
    {
      "constant": true,
      "inputs": [
        {
          "name": "",
          "type": "address"
        }
      ],
      "name": "owners",
      "outputs": [
        {
          "name": "",
          "type": "address"
        }
      ],
      "payable": false,
      "stateMutability": "view",
      "type": "function"
    },
    {
      "constant": true,
      "inputs": [
        {
          "name": "",
          "type": "address"
        },
        {
          "name": "",
          "type": "bytes32"
        },
        {
          "name": "",
          "type": "address"
        }
      ],
      "name": "delegates",
      "outputs": [
        {
          "name": "",
          "type": "uint256"
        }
      ],
      "payable": false,
      "stateMutability": "view",
      "type": "function"
    },
    {
      "constant": true,
      "inputs": [
        {
          "name": "",
          "type": "address"
        }
      ],
      "name": "changed",
      "outputs": [
        {
          "name": "",
          "type": "uint256"
        }
      ],
      "payable": false,
      "stateMutability": "view",
      "type": "function"
    },
    {
      "inputs": [],
      "payable": false,
      "stateMutability": "nonpayable",
      "type": "constructor"
    },
    {
      "anonymous": false,
      "inputs": [
        {
          "indexed": true,
          "name": "identity",
          "type": "address"
        },
        {
          "indexed": false,
          "name": "keyType",
          "type": "bytes32"
        },
        {
          "indexed": false,
          "name": "delegate",
          "type": "address"
        },
        {
          "indexed": false,
          "name": "validTo",
          "type": "uint256"
        },
        {
          "indexed": false,
          "name": "previousChange",
          "type": "uint256"
        }
      ],
      "name": "DIDDelegateChanged",
      "type": "event"
    },
    {
      "anonymous": false,
      "inputs": [
        {
          "indexed": true,
          "name": "identity",
          "type": "address"
        },
        {
          "indexed": false,
          "name": "name",
          "type": "string"
        },
        {
          "indexed": false,
          "name": "value",
          "type": "bytes"
        },
        {
          "indexed": false,
          "name": "validTo",
          "type": "uint256"
        },
        {
          "indexed": false,
          "name": "previousChange",
          "type": "uint256"
        }
      ],
      "name": "DIDAttributeChanged",
      "type": "event"
    },
    {
      "constant": true,
      "inputs": [
        {
          "name": "identity",
          "type": "address"
        }
      ],
      "name": "identityOwner",
      "outputs": [
        {
          "name": "",
          "type": "address"
        }
      ],
      "payable": false,
      "stateMutability": "view",
      "type": "function"
    },
    {
      "constant": true,
      "inputs": [
        {
          "name": "identity",
          "type": "address"
        },
        {
          "name": "delegateType",
          "type": "bytes32"
        },
        {
          "name": "delegate",
          "type": "address"
        }
      ],
      "name": "validDelegate",
      "outputs": [
        {
          "name": "",
          "type": "bool"
        }
      ],
      "payable": false,
      "stateMutability": "view",
      "type": "function"
    },
    {
      "constant": false,
      "inputs": [
        {
          "name": "identity",
          "type": "address"
        },
        {
          "name": "newOwner",
          "type": "address"
        }
      ],
      "name": "changeOwner",
      "outputs": [],
      "payable": false,
      "stateMutability": "nonpayable",
      "type": "function"
    },
    {
      "constant": false,
      "inputs": [
        {
          "name": "identity",
          "type": "address"
        },
        {
          "name": "delegateType",
          "type": "bytes32"
        },
        {
          "name": "delegate",
          "type": "address"
        },
        {
          "name": "validity",
          "type": "uint256"
        }
      ],
      "name": "addDelegate",
      "outputs": [],
      "payable": false,
      "stateMutability": "nonpayable",
      "type": "function"
    },
    {
      "constant": false,
      "inputs": [
        {
          "name": "identity",
          "type": "address"
        },
        {
          "name": "name",
          "type": "string"
        },
        {
          "name": "value",
          "type": "bytes"
        },
        {
          "name": "validity",
          "type": "uint256"
        }
      ],
      "name": "setAttribute",
      "outputs": [],
      "payable": false,
      "stateMutability": "nonpayable",
      "type": "function"
    }
  ],
  "bytecode": "0x6060604052341561000f57600080fd5b610d408061001e6000396000f30060606040526004361061008e576000357c0100000000000000000000000000000000000000000000000000000000900463ffffffff168063022914a714610093578063057339891461010c5780630d44625b146101d4578063622b2a3c1461024d5780638733d4e8146102ca578063a7068d6614610343578063f00d4b5d146103b1578063f96d0f9f14610409575b600080fd5b341561009e57600080fd5b6100ca600480803573ffffffffffffffffffffffffffffffffffffffff16906020019091905050610456565b604051808273ffffffffffffffffffffffffffffffffffffffff1673ffffffffffffffffffffffffffffffffffffffff16815260200191505060405180910390f35b341561011757600080fd5b6101d2600480803573ffffffffffffffffffffffffffffffffffffffff1690602001909190803590602001908201803590602001908080601f0160208091040260200160405190810160405280939291908181526020018383808284378201915050505050509190803590602001908201803590602001908080601f01602080910402602001604051908101604052809392919081815260200183838082843782019150505050505091908035906020019091905050610489565b005b34156101df57600080fd5b610237600480803573ffffffffffffffffffffffffffffffffffffffff169060200190919080356000191690602001909190803573ffffffffffffffffffffffffffffffffffffffff1690602001909190505061049c565b6040518082815260200191505060405180910390f35b341561025857600080fd5b6102b0600480803573ffffffffffffffffffffffffffffffffffffffff169060200190919080356000191690602001909190803573ffffffffffffffffffffffffffffffffffffffff169060200190919050506104ce565b604051808215151515815260200191505060405180910390f35b34156102d557600080fd5b610301600480803573ffffffffffffffffffffffffffffffffffffffff169060200190919050506105e6565b604051808273ffffffffffffffffffffffffffffffffffffffff1673ffffffffffffffffffffffffffffffffffffffff16815260200191505060405180910390f35b341561034e57600080fd5b6103af600480803573ffffffffffffffffffffffffffffffffffffffff169060200190919080356000191690602001909190803573ffffffffffffffffffffffffffffffffffffffff1690602001909190803590602001909190505061067c565b005b34156103bc57600080fd5b610407600480803573ffffffffffffffffffffffffffffffffffffffff1690602001909190803573ffffffffffffffffffffffffffffffffffffffff1690602001909190505061068f565b005b341561041457600080fd5b610440600480803573ffffffffffffffffffffffffffffffffffffffff1690602001909190505061069e565b6040518082815260200191505060405180910390f35b60006020528060005260406000206000915054906101000a900473ffffffffffffffffffffffffffffffffffffffff1681565b61049684338585856106b6565b50505050565b600160205282600052604060002060205281600052604060002060205280600052604060002060009250925050505481565b6000807f6f776e6572000000000000000000000000000000000000000000000000000000600019168460001916141561053f5761050a856105e6565b73ffffffffffffffffffffffffffffffffffffffff168373ffffffffffffffffffffffffffffffffffffffff161491506105de565b600160008673ffffffffffffffffffffffffffffffffffffffff1673ffffffffffffffffffffffffffffffffffffffff1681526020019081526020016000206000856000191660001916815260200190815260200160002060008473ffffffffffffffffffffffffffffffffffffffff1673ffffffffffffffffffffffffffffffffffffffff1681526020019081526020016000205490504281101591505b509392505050565b6000806000808473ffffffffffffffffffffffffffffffffffffffff1673ffffffffffffffffffffffffffffffffffffffff16815260200190815260200160002060009054906101000a900473ffffffffffffffffffffffffffffffffffffffff16905060008173ffffffffffffffffffffffffffffffffffffffff1614151561067257809150610676565b8291505b50919050565b61068984338585856108b8565b50505050565b61069a823383610af7565b5050565b60026020528060005260406000206000915090505481565b84846106c1826105e6565b73ffffffffffffffffffffffffffffffffffffffff168173ffffffffffffffffffffffffffffffffffffffff161415156106fa57600080fd5b8673ffffffffffffffffffffffffffffffffffffffff167fe3cf3321991c9bb5c44a59a2cd69c096405984c1293b5e247a0430f1b28d887b8686864201600260008d73ffffffffffffffffffffffffffffffffffffffff1673ffffffffffffffffffffffffffffffffffffffff16815260200190815260200160002054604051808060200180602001858152602001848152602001838103835287818151815260200191508051906020019080838360005b838110156107c75780820151818401526020810190506107ac565b50505050905090810190601f1680156107f45780820380516001836020036101000a031916815260200191505b50838103825286818151815260200191508051906020019080838360005b8381101561082d578082015181840152602081019050610812565b50505050905090810190601f16801561085a5780820380516001836020036101000a031916815260200191505b50965050505050505060405180910390a243600260008973ffffffffffffffffffffffffffffffffffffffff1673ffffffffffffffffffffffffffffffffffffffff1681526020019081526020016000208190555050505050505050565b84846108c3826105e6565b73ffffffffffffffffffffffffffffffffffffffff168173ffffffffffffffffffffffffffffffffffffffff161415156108fc57600080fd5b84600019167f6f776e6572000000000000000000000000000000000000000000000000000000600019161415151561093357600080fd5b824201600160008973ffffffffffffffffffffffffffffffffffffffff1673ffffffffffffffffffffffffffffffffffffffff1681526020019081526020016000206000876000191660001916815260200190815260200160002060008673ffffffffffffffffffffffffffffffffffffffff1673ffffffffffffffffffffffffffffffffffffffff168152602001908152602001600020819055508673ffffffffffffffffffffffffffffffffffffffff167f5a5084339536bcab65f20799fcc58724588145ca054bd2be626174b27ba156f78686864201600260008d73ffffffffffffffffffffffffffffffffffffffff1673ffffffffffffffffffffffffffffffffffffffff168152602001908152602001600020546040518085600019166000191681526020018473ffffffffffffffffffffffffffffffffffffffff1673ffffffffffffffffffffffffffffffffffffffff16815260200183815260200182815260200194505050505060405180910390a243600260008973ffffffffffffffffffffffffffffffffffffffff1673ffffffffffffffffffffffffffffffffffffffff1681526020019081526020016000208190555050505050505050565b8282610b02826105e6565b73ffffffffffffffffffffffffffffffffffffffff168173ffffffffffffffffffffffffffffffffffffffff16141515610b3b57600080fd5b826000808773ffffffffffffffffffffffffffffffffffffffff1673ffffffffffffffffffffffffffffffffffffffff16815260200190815260200160002060006101000a81548173ffffffffffffffffffffffffffffffffffffffff021916908373ffffffffffffffffffffffffffffffffffffffff1602179055508473ffffffffffffffffffffffffffffffffffffffff167f5a5084339536bcab65f20799fcc58724588145ca054bd2be626174b27ba156f7847fffffffffffffffffffffffffffffffffffffffffffffffffffffffffffffffff600260008a73ffffffffffffffffffffffffffffffffffffffff1673ffffffffffffffffffffffffffffffffffffffff1681526020019081526020016000205460405180807f6f776e65720000000000000000000000000000000000000000000000000000008152506020018473ffffffffffffffffffffffffffffffffffffffff1673ffffffffffffffffffffffffffffffffffffffff168152602001838152602001828152602001935050505060405180910390a243600260008773ffffffffffffffffffffffffffffffffffffffff1673ffffffffffffffffffffffffffffffffffffffff1681526020019081526020016000208190555050505050505600a165627a7a72305820efc63aa81d693ad508d9183953618598be9a2682d18568f1d54a1477bf3e2f420029",
  "source": "pragma solidity ^0.4.4;\n\ncontract EthereumDIDRegistry {\n\n  mapping(address => address) public owners;\n  mapping(address => mapping(bytes32 => mapping(address => uint))) public delegates;\n  mapping(address => uint) public changed;\n\n  modifier onlyOwner(address identity, address actor) {\n    require (actor == identityOwner(identity));\n    _;\n  }\n\n  event DIDDelegateChanged(\n    address indexed identity,\n    bytes32 keyType,\n    address delegate,\n    uint validTo,\n    uint previousChange\n  );\n\n  event DIDAttributeChanged(\n    address indexed identity,\n    string name,\n    bytes value,\n    uint validTo,\n    uint previousChange\n  );\n\n  function EthereumDIDRegistry() public {\n  }\n\n  function identityOwner(address identity) public view returns(address) {\n     address owner = owners[identity];\n     if (owner != 0x0) {\n       return owner;\n     }\n     return identity;\n  }\n\n  function validDelegate(address identity, bytes32 delegateType, address delegate) public view returns(bool) {\n    if (delegateType == bytes32(\"owner\")) {\n      return (delegate == identityOwner(identity));\n    }\n    uint validity = delegates[identity][delegateType][delegate];\n    return (validity >= block.timestamp);\n  }\n\n  function changeOwner(address identity, address actor, address newOwner) internal onlyOwner(identity, actor) {\n    owners[identity] = newOwner;\n    DIDDelegateChanged(identity, \"owner\", newOwner, 2**256 - 1, changed[identity]);\n    changed[identity] = block.number;\n  }\n\n  function changeOwner(address identity, address newOwner) public {\n    changeOwner(identity, msg.sender, newOwner);\n  }\n\n  function addDelegate(address identity, address actor, bytes32 delegateType, address delegate, uint validity ) internal onlyOwner(identity, actor) {\n    require(bytes32(\"owner\") != delegateType);\n    delegates[identity][delegateType][delegate] = block.timestamp + validity;\n    DIDDelegateChanged(identity, delegateType, delegate, block.timestamp + validity, changed[identity]);\n    changed[identity] = block.number;\n  }\n\n  function addDelegate(address identity, bytes32 delegateType, address delegate, uint validity) public {\n    addDelegate(identity, msg.sender, delegateType, delegate, validity);\n  }\n\n  function setAttribute(address identity, address actor, string name, bytes value, uint validity ) internal onlyOwner(identity, actor) {\n    DIDAttributeChanged(identity, name, value, block.timestamp + validity, changed[identity]);\n    changed[identity] = block.number;\n  }\n\n  function setAttribute(address identity, string name, bytes value, uint validity) public {\n    setAttribute(identity, msg.sender, name, value, validity);\n  }\n\n}\n",
  "sourcePath": "/Users/pelleb/code/consensys/ethereum-did-registry/contracts/EthereumDIDRegistry.sol",
  "compiler": {
    "name": "solc",
    "version": "0.4.19+commit.c4cbbb05.Emscripten.clang"
  },
  "schemaVersion": "1.0.1",
  "updatedAt": "2018-02-25T19:38:40.005Z"
}