{
  "contractName": "EthereumDIDRegistry",
  "abi": [
    {
      "constant": true,
      "inputs": [
        {
          "name": "",
          "type": "address"
        }
      ],
      "name": "owners",
      "outputs": [
        {
          "name": "",
          "type": "address"
        }
      ],
      "payable": false,
      "stateMutability": "view",
      "type": "function"
    },
    {
      "constant": true,
      "inputs": [
        {
          "name": "",
          "type": "address"
        },
        {
          "name": "",
          "type": "bytes32"
        },
        {
          "name": "",
          "type": "address"
        }
      ],
      "name": "delegates",
      "outputs": [
        {
          "name": "",
          "type": "uint256"
        }
      ],
      "payable": false,
      "stateMutability": "view",
      "type": "function"
    },
    {
      "constant": true,
      "inputs": [
        {
          "name": "",
          "type": "address"
        }
      ],
      "name": "nonce",
      "outputs": [
        {
          "name": "",
          "type": "uint256"
        }
      ],
      "payable": false,
      "stateMutability": "view",
      "type": "function"
    },
    {
      "constant": true,
      "inputs": [
        {
          "name": "",
          "type": "address"
        }
      ],
      "name": "changed",
      "outputs": [
        {
          "name": "",
          "type": "uint256"
        }
      ],
      "payable": false,
      "stateMutability": "view",
      "type": "function"
    },
    {
      "inputs": [],
      "payable": false,
      "stateMutability": "nonpayable",
      "type": "constructor"
    },
    {
      "anonymous": false,
      "inputs": [
        {
          "indexed": true,
          "name": "identity",
          "type": "address"
        },
        {
          "indexed": false,
          "name": "owner",
          "type": "address"
        },
        {
          "indexed": false,
          "name": "previousChange",
          "type": "uint256"
        }
      ],
      "name": "DIDOwnerChanged",
      "type": "event"
    },
    {
      "anonymous": false,
      "inputs": [
        {
          "indexed": true,
          "name": "identity",
          "type": "address"
        },
        {
          "indexed": false,
          "name": "delegateType",
          "type": "string"
        },
        {
          "indexed": false,
          "name": "delegate",
          "type": "address"
        },
        {
          "indexed": false,
          "name": "validTo",
          "type": "uint256"
        },
        {
          "indexed": false,
          "name": "previousChange",
          "type": "uint256"
        }
      ],
      "name": "DIDDelegateChanged",
      "type": "event"
    },
    {
      "anonymous": false,
      "inputs": [
        {
          "indexed": true,
          "name": "identity",
          "type": "address"
        },
        {
          "indexed": false,
          "name": "name",
          "type": "string"
        },
        {
          "indexed": false,
          "name": "value",
          "type": "bytes"
        },
        {
          "indexed": false,
          "name": "validTo",
          "type": "uint256"
        },
        {
          "indexed": false,
          "name": "previousChange",
          "type": "uint256"
        }
      ],
      "name": "DIDAttributeChanged",
      "type": "event"
    },
    {
      "constant": true,
      "inputs": [
        {
          "name": "identity",
          "type": "address"
        }
      ],
      "name": "identityOwner",
      "outputs": [
        {
          "name": "",
          "type": "address"
        }
      ],
      "payable": false,
      "stateMutability": "view",
      "type": "function"
    },
    {
      "constant": true,
      "inputs": [
        {
          "name": "identity",
          "type": "address"
        },
        {
          "name": "delegateType",
          "type": "string"
        },
        {
          "name": "delegate",
          "type": "address"
        }
      ],
      "name": "validDelegate",
      "outputs": [
        {
          "name": "",
          "type": "bool"
        }
      ],
      "payable": false,
      "stateMutability": "view",
      "type": "function"
    },
    {
      "constant": false,
      "inputs": [
        {
          "name": "identity",
          "type": "address"
        },
        {
          "name": "delegateType",
          "type": "string"
        },
        {
          "name": "sigV",
          "type": "uint8"
        },
        {
          "name": "sigR",
          "type": "bytes32"
        },
        {
          "name": "sigS",
          "type": "bytes32"
        },
        {
          "name": "hash",
          "type": "bytes32"
        }
      ],
      "name": "validDelegateSignature",
      "outputs": [
        {
          "name": "",
          "type": "address"
        }
      ],
      "payable": false,
      "stateMutability": "nonpayable",
      "type": "function"
    },
    {
      "constant": false,
      "inputs": [
        {
          "name": "identity",
          "type": "address"
        },
        {
          "name": "newOwner",
          "type": "address"
        }
      ],
      "name": "changeOwner",
      "outputs": [],
      "payable": false,
      "stateMutability": "nonpayable",
      "type": "function"
    },
    {
      "constant": false,
      "inputs": [
        {
          "name": "identity",
          "type": "address"
        },
        {
          "name": "sigV",
          "type": "uint8"
        },
        {
          "name": "sigR",
          "type": "bytes32"
        },
        {
          "name": "sigS",
          "type": "bytes32"
        },
        {
          "name": "newOwner",
          "type": "address"
        }
      ],
      "name": "changeOwnerSigned",
      "outputs": [],
      "payable": false,
      "stateMutability": "nonpayable",
      "type": "function"
    },
    {
      "constant": false,
      "inputs": [
        {
          "name": "identity",
          "type": "address"
        },
        {
          "name": "delegateType",
          "type": "string"
        },
        {
          "name": "delegate",
          "type": "address"
        },
        {
          "name": "validity",
          "type": "uint256"
        }
      ],
      "name": "addDelegate",
      "outputs": [],
      "payable": false,
      "stateMutability": "nonpayable",
      "type": "function"
    },
    {
      "constant": false,
      "inputs": [
        {
          "name": "identity",
          "type": "address"
        },
        {
          "name": "sigV",
          "type": "uint8"
        },
        {
          "name": "sigR",
          "type": "bytes32"
        },
        {
          "name": "sigS",
          "type": "bytes32"
        },
        {
          "name": "delegateType",
          "type": "string"
        },
        {
          "name": "delegate",
          "type": "address"
        },
        {
          "name": "validity",
          "type": "uint256"
        }
      ],
      "name": "addDelegateSigned",
      "outputs": [],
      "payable": false,
      "stateMutability": "nonpayable",
      "type": "function"
    },
    {
      "constant": false,
      "inputs": [
        {
          "name": "identity",
          "type": "address"
        },
        {
          "name": "delegateType",
          "type": "string"
        },
        {
          "name": "delegate",
          "type": "address"
        }
      ],
      "name": "revokeDelegate",
      "outputs": [],
      "payable": false,
      "stateMutability": "nonpayable",
      "type": "function"
    },
    {
      "constant": false,
      "inputs": [
        {
          "name": "identity",
          "type": "address"
        },
        {
          "name": "sigV",
          "type": "uint8"
        },
        {
          "name": "sigR",
          "type": "bytes32"
        },
        {
          "name": "sigS",
          "type": "bytes32"
        },
        {
          "name": "delegateType",
          "type": "string"
        },
        {
          "name": "delegate",
          "type": "address"
        }
      ],
      "name": "revokeDelegateSigned",
      "outputs": [],
      "payable": false,
      "stateMutability": "nonpayable",
      "type": "function"
    },
    {
      "constant": false,
      "inputs": [
        {
          "name": "identity",
          "type": "address"
        },
        {
          "name": "name",
          "type": "string"
        },
        {
          "name": "value",
          "type": "bytes"
        },
        {
          "name": "validity",
          "type": "uint256"
        }
      ],
      "name": "setAttribute",
      "outputs": [],
      "payable": false,
      "stateMutability": "nonpayable",
      "type": "function"
    },
    {
      "constant": false,
      "inputs": [
        {
          "name": "identity",
          "type": "address"
        },
        {
          "name": "sigV",
          "type": "uint8"
        },
        {
          "name": "sigR",
          "type": "bytes32"
        },
        {
          "name": "sigS",
          "type": "bytes32"
        },
        {
          "name": "name",
          "type": "string"
        },
        {
          "name": "value",
          "type": "bytes"
        },
        {
          "name": "validity",
          "type": "uint256"
        }
      ],
      "name": "setAttributeSigned",
      "outputs": [],
      "payable": false,
      "stateMutability": "nonpayable",
      "type": "function"
    },
    {
      "constant": false,
      "inputs": [
        {
          "name": "identity",
          "type": "address"
        },
        {
          "name": "name",
          "type": "string"
        },
        {
          "name": "value",
          "type": "bytes"
        }
      ],
      "name": "revokeAttribute",
      "outputs": [],
      "payable": false,
      "stateMutability": "nonpayable",
      "type": "function"
    },
    {
      "constant": false,
      "inputs": [
        {
          "name": "identity",
          "type": "address"
        },
        {
          "name": "sigV",
          "type": "uint8"
        },
        {
          "name": "sigR",
          "type": "bytes32"
        },
        {
          "name": "sigS",
          "type": "bytes32"
        },
        {
          "name": "name",
          "type": "string"
        },
        {
          "name": "value",
          "type": "bytes"
        }
      ],
      "name": "revokeAttributeSigned",
      "outputs": [],
      "payable": false,
      "stateMutability": "nonpayable",
      "type": "function"
    }
  ],
  "bytecode": "0x6060604052341561000f57600080fd5b6128e28061001e6000396000f3006060604052600436106100f1576000357c0100000000000000000000000000000000000000000000000000000000900463ffffffff168063022914a7146100f6578063057339891461016f5780630d44625b146102375780631ecc05f2146102b0578063240cf1fa146103635780633c71b7b6146103e15780636a833a6c146104d057806370ae92d21461059a5780637ab528c9146105e75780637feda59a146106825780638733d4e8146107415780639a94ab9c146107ba578063a641d28e1461085e578063d25a12121461091f578063f00d4b5d14610a04578063f3f2e65614610a5c578063f96d0f9f14610b4a575b600080fd5b341561010157600080fd5b61012d600480803573ffffffffffffffffffffffffffffffffffffffff16906020019091905050610b97565b604051808273ffffffffffffffffffffffffffffffffffffffff1673ffffffffffffffffffffffffffffffffffffffff16815260200191505060405180910390f35b341561017a57600080fd5b610235600480803573ffffffffffffffffffffffffffffffffffffffff1690602001909190803590602001908201803590602001908080601f0160208091040260200160405190810160405280939291908181526020018383808284378201915050505050509190803590602001908201803590602001908080601f01602080910402602001604051908101604052809392919081815260200183838082843782019150505050505091908035906020019091905050610bca565b005b341561024257600080fd5b61029a600480803573ffffffffffffffffffffffffffffffffffffffff169060200190919080356000191690602001909190803573ffffffffffffffffffffffffffffffffffffffff16906020019091905050610bdd565b6040518082815260200191505060405180910390f35b34156102bb57600080fd5b610349600480803573ffffffffffffffffffffffffffffffffffffffff1690602001909190803590602001908201803590602001908080601f0160208091040260200160405190810160405280939291908181526020018383808284378201915050505050509190803573ffffffffffffffffffffffffffffffffffffffff16906020019091905050610c0f565b604051808215151515815260200191505060405180910390f35b341561036e57600080fd5b6103df600480803573ffffffffffffffffffffffffffffffffffffffff1690602001909190803560ff16906020019091908035600019169060200190919080356000191690602001909190803573ffffffffffffffffffffffffffffffffffffffff16906020019091905050610d1a565b005b34156103ec57600080fd5b61048e600480803573ffffffffffffffffffffffffffffffffffffffff1690602001909190803590602001908201803590602001908080601f0160208091040260200160405190810160405280939291908181526020018383808284378201915050505050509190803560ff16906020019091908035600019169060200190919080356000191690602001909190803560001916906020019091905050610f69565b604051808273ffffffffffffffffffffffffffffffffffffffff1673ffffffffffffffffffffffffffffffffffffffff16815260200191505060405180910390f35b34156104db57600080fd5b610598600480803573ffffffffffffffffffffffffffffffffffffffff1690602001909190803560ff16906020019091908035600019169060200190919080356000191690602001909190803590602001908201803590602001908080601f0160208091040260200160405190810160405280939291908181526020018383808284378201915050505050509190803573ffffffffffffffffffffffffffffffffffffffff16906020019091908035906020019091905050611068565b005b34156105a557600080fd5b6105d1600480803573ffffffffffffffffffffffffffffffffffffffff16906020019091905050611318565b6040518082815260200191505060405180910390f35b34156105f257600080fd5b610680600480803573ffffffffffffffffffffffffffffffffffffffff1690602001909190803590602001908201803590602001908080601f0160208091040260200160405190810160405280939291908181526020018383808284378201915050505050509190803573ffffffffffffffffffffffffffffffffffffffff16906020019091905050611330565b005b341561068d57600080fd5b61073f600480803573ffffffffffffffffffffffffffffffffffffffff1690602001909190803590602001908201803590602001908080601f0160208091040260200160405190810160405280939291908181526020018383808284378201915050505050509190803590602001908201803590602001908080601f01602080910402602001604051908101604052809392919081815260200183838082843782019150505050505091905050611341565b005b341561074c57600080fd5b610778600480803573ffffffffffffffffffffffffffffffffffffffff16906020019091905050611352565b604051808273ffffffffffffffffffffffffffffffffffffffff1673ffffffffffffffffffffffffffffffffffffffff16815260200191505060405180910390f35b34156107c557600080fd5b61085c600480803573ffffffffffffffffffffffffffffffffffffffff1690602001909190803590602001908201803590602001908080601f0160208091040260200160405190810160405280939291908181526020018383808284378201915050505050509190803573ffffffffffffffffffffffffffffffffffffffff169060200190919080359060200190919050506113e8565b005b341561086957600080fd5b61091d600480803573ffffffffffffffffffffffffffffffffffffffff1690602001909190803560ff16906020019091908035600019169060200190919080356000191690602001909190803590602001908201803590602001908080601f0160208091040260200160405190810160405280939291908181526020018383808284378201915050505050509190803573ffffffffffffffffffffffffffffffffffffffff169060200190919050506113fb565b005b341561092a57600080fd5b610a02600480803573ffffffffffffffffffffffffffffffffffffffff1690602001909190803560ff16906020019091908035600019169060200190919080356000191690602001909190803590602001908201803590602001908080601f0160208091040260200160405190810160405280939291908181526020018383808284378201915050505050509190803590602001908201803590602001908080601f016020809104026020016040519081016040528093929190818152602001838380828437820191505050505050919050506116a1565b005b3415610a0f57600080fd5b610a5a600480803573ffffffffffffffffffffffffffffffffffffffff1690602001909190803573ffffffffffffffffffffffffffffffffffffffff16906020019091905050611951565b005b3415610a6757600080fd5b610b48600480803573ffffffffffffffffffffffffffffffffffffffff1690602001909190803560ff16906020019091908035600019169060200190919080356000191690602001909190803590602001908201803590602001908080601f0160208091040260200160405190810160405280939291908181526020018383808284378201915050505050509190803590602001908201803590602001908080601f01602080910402602001604051908101604052809392919081815260200183838082843782019150505050505091908035906020019091905050611960565b005b3415610b5557600080fd5b610b81600480803573ffffffffffffffffffffffffffffffffffffffff16906020019091905050611c1a565b6040518082815260200191505060405180910390f35b60006020528060005260406000206000915054906101000a900473ffffffffffffffffffffffffffffffffffffffff1681565b610bd78433858585611c32565b50505050565b600160205282600052604060002060205281600052604060002060205280600052604060002060009250925050505481565b600080600160008673ffffffffffffffffffffffffffffffffffffffff1673ffffffffffffffffffffffffffffffffffffffff1681526020019081526020016000206000856040518082805190602001908083835b602083101515610c895780518252602082019150602081019050602083039250610c64565b6001836020036101000a03801982511681845116808217855250505050505090500191505060405180910390206000191660001916815260200190815260200160002060008473ffffffffffffffffffffffffffffffffffffffff1673ffffffffffffffffffffffffffffffffffffffff168152602001908152602001600020549050428110159150509392505050565b600060197f01000000000000000000000000000000000000000000000000000000000000000260007f0100000000000000000000000000000000000000000000000000000000000000023060036000610d728b611352565b73ffffffffffffffffffffffffffffffffffffffff1673ffffffffffffffffffffffffffffffffffffffff16815260200190815260200160002054898660405180877effffffffffffffffffffffffffffffffffffffffffffffffffffffffffffff19167effffffffffffffffffffffffffffffffffffffffffffffffffffffffffffff19168152600101867effffffffffffffffffffffffffffffffffffffffffffffffffffffffffffff19167effffffffffffffffffffffffffffffffffffffffffffffffffffffffffffff191681526001018573ffffffffffffffffffffffffffffffffffffffff1673ffffffffffffffffffffffffffffffffffffffff166c010000000000000000000000000281526014018481526020018373ffffffffffffffffffffffffffffffffffffffff1673ffffffffffffffffffffffffffffffffffffffff166c01000000000000000000000000028152601401807f6368616e67654f776e6572000000000000000000000000000000000000000000815250600b018273ffffffffffffffffffffffffffffffffffffffff1673ffffffffffffffffffffffffffffffffffffffff166c01000000000000000000000000028152601401965050505050505060405180910390209050610f6186610f5b8888888887611e34565b84611f5e565b505050505050565b600080600183878787604051600081526020016040526000604051602001526040518085600019166000191681526020018460ff1660ff16815260200183600019166000191681526020018260001916600019168152602001945050505050602060405160208103908084039060008661646e5a03f11515610fea57600080fd5b5050602060405103519050611000888883610c0f565b151561100b57600080fd5b600360008273ffffffffffffffffffffffffffffffffffffffff1673ffffffffffffffffffffffffffffffffffffffff16815260200190815260200160002060008154809291906001019190505550809150509695505050505050565b600060197f01000000000000000000000000000000000000000000000000000000000000000260007f01000000000000000000000000000000000000000000000000000000000000000230600360006110c08d611352565b73ffffffffffffffffffffffffffffffffffffffff1673ffffffffffffffffffffffffffffffffffffffff168152602001908152602001600020548b88888860405180897effffffffffffffffffffffffffffffffffffffffffffffffffffffffffffff19167effffffffffffffffffffffffffffffffffffffffffffffffffffffffffffff19168152600101887effffffffffffffffffffffffffffffffffffffffffffffffffffffffffffff19167effffffffffffffffffffffffffffffffffffffffffffffffffffffffffffff191681526001018773ffffffffffffffffffffffffffffffffffffffff1673ffffffffffffffffffffffffffffffffffffffff166c010000000000000000000000000281526014018681526020018573ffffffffffffffffffffffffffffffffffffffff1673ffffffffffffffffffffffffffffffffffffffff166c01000000000000000000000000028152601401807f61646444656c6567617465000000000000000000000000000000000000000000815250600b0184805190602001908083835b6020831015156112785780518252602082019150602081019050602083039250611253565b6001836020036101000a0380198251168184511680821785525050505050509050018373ffffffffffffffffffffffffffffffffffffffff1673ffffffffffffffffffffffffffffffffffffffff166c01000000000000000000000000028152601401828152602001985050505050505050506040518091039020905061130e886113068a8a8a8a87611e34565b86868661212b565b5050505050505050565b60036020528060005260406000206000915090505481565b61133c833384846123f2565b505050565b61134d833384846126b6565b505050565b6000806000808473ffffffffffffffffffffffffffffffffffffffff1673ffffffffffffffffffffffffffffffffffffffff16815260200190815260200160002060009054906101000a900473ffffffffffffffffffffffffffffffffffffffff16905060008173ffffffffffffffffffffffffffffffffffffffff161415156113de578091506113e2565b8291505b50919050565b6113f5843385858561212b565b50505050565b600060197f01000000000000000000000000000000000000000000000000000000000000000260007f01000000000000000000000000000000000000000000000000000000000000000230600360006114538c611352565b73ffffffffffffffffffffffffffffffffffffffff1673ffffffffffffffffffffffffffffffffffffffff168152602001908152602001600020548a878760405180887effffffffffffffffffffffffffffffffffffffffffffffffffffffffffffff19167effffffffffffffffffffffffffffffffffffffffffffffffffffffffffffff19168152600101877effffffffffffffffffffffffffffffffffffffffffffffffffffffffffffff19167effffffffffffffffffffffffffffffffffffffffffffffffffffffffffffff191681526001018673ffffffffffffffffffffffffffffffffffffffff1673ffffffffffffffffffffffffffffffffffffffff166c010000000000000000000000000281526014018581526020018473ffffffffffffffffffffffffffffffffffffffff1673ffffffffffffffffffffffffffffffffffffffff166c01000000000000000000000000028152601401807f7265766f6b6544656c6567617465000000000000000000000000000000000000815250600e0183805190602001908083835b60208310151561160a57805182526020820191506020810190506020830392506115e5565b6001836020036101000a0380198251168184511680821785525050505050509050018273ffffffffffffffffffffffffffffffffffffffff1673ffffffffffffffffffffffffffffffffffffffff166c0100000000000000000000000002815260140197505050505050505060405180910390209050611698876116918989898987611e34565b85856123f2565b50505050505050565b600060197f01000000000000000000000000000000000000000000000000000000000000000260007f01000000000000000000000000000000000000000000000000000000000000000230600360008b73ffffffffffffffffffffffffffffffffffffffff1673ffffffffffffffffffffffffffffffffffffffff168152602001908152602001600020548a878760405180887effffffffffffffffffffffffffffffffffffffffffffffffffffffffffffff19167effffffffffffffffffffffffffffffffffffffffffffffffffffffffffffff19168152600101877effffffffffffffffffffffffffffffffffffffffffffffffffffffffffffff19167effffffffffffffffffffffffffffffffffffffffffffffffffffffffffffff191681526001018673ffffffffffffffffffffffffffffffffffffffff1673ffffffffffffffffffffffffffffffffffffffff166c010000000000000000000000000281526014018581526020018473ffffffffffffffffffffffffffffffffffffffff1673ffffffffffffffffffffffffffffffffffffffff166c01000000000000000000000000028152601401807f7265766f6b654174747269627574650000000000000000000000000000000000815250600f0183805190602001908083835b6020831015156118a85780518252602082019150602081019050602083039250611883565b6001836020036101000a03801982511681845116808217855250505050505090500182805190602001908083835b6020831015156118fb57805182526020820191506020810190506020830392506118d6565b6001836020036101000a03801982511681845116808217855250505050505090500197505050505050505060405180910390209050611948876119418989898987611e34565b85856126b6565b50505050505050565b61195c823383611f5e565b5050565b600060197f01000000000000000000000000000000000000000000000000000000000000000260007f01000000000000000000000000000000000000000000000000000000000000000230600360008c73ffffffffffffffffffffffffffffffffffffffff1673ffffffffffffffffffffffffffffffffffffffff168152602001908152602001600020548b88888860405180897effffffffffffffffffffffffffffffffffffffffffffffffffffffffffffff19167effffffffffffffffffffffffffffffffffffffffffffffffffffffffffffff19168152600101887effffffffffffffffffffffffffffffffffffffffffffffffffffffffffffff19167effffffffffffffffffffffffffffffffffffffffffffffffffffffffffffff191681526001018773ffffffffffffffffffffffffffffffffffffffff1673ffffffffffffffffffffffffffffffffffffffff166c010000000000000000000000000281526014018681526020018573ffffffffffffffffffffffffffffffffffffffff1673ffffffffffffffffffffffffffffffffffffffff166c01000000000000000000000000028152601401807f7365744174747269627574650000000000000000000000000000000000000000815250600c0184805190602001908083835b602083101515611b685780518252602082019150602081019050602083039250611b43565b6001836020036101000a03801982511681845116808217855250505050505090500183805190602001908083835b602083101515611bbb5780518252602082019150602081019050602083039250611b96565b6001836020036101000a0380198251168184511680821785525050505050509050018281526020019850505050505050505060405180910390209050611c1088611c088a8a8a8a87611e34565b868686611c32565b5050505050505050565b60026020528060005260406000206000915090505481565b8484611c3d82611352565b73ffffffffffffffffffffffffffffffffffffffff168173ffffffffffffffffffffffffffffffffffffffff16141515611c7657600080fd5b8673ffffffffffffffffffffffffffffffffffffffff167fe3cf3321991c9bb5c44a59a2cd69c096405984c1293b5e247a0430f1b28d887b8686864201600260008d73ffffffffffffffffffffffffffffffffffffffff1673ffffffffffffffffffffffffffffffffffffffff16815260200190815260200160002054604051808060200180602001858152602001848152602001838103835287818151815260200191508051906020019080838360005b83811015611d43578082015181840152602081019050611d28565b50505050905090810190601f168015611d705780820380516001836020036101000a031916815260200191505b50838103825286818151815260200191508051906020019080838360005b83811015611da9578082015181840152602081019050611d8e565b50505050905090810190601f168015611dd65780820380516001836020036101000a031916815260200191505b50965050505050505060405180910390a243600260008973ffffffffffffffffffffffffffffffffffffffff1673ffffffffffffffffffffffffffffffffffffffff1681526020019081526020016000208190555050505050505050565b600080600183878787604051600081526020016040526000604051602001526040518085600019166000191681526020018460ff1660ff16815260200183600019166000191681526020018260001916600019168152602001945050505050602060405160208103908084039060008661646e5a03f11515611eb557600080fd5b5050602060405103519050611ec987611352565b73ffffffffffffffffffffffffffffffffffffffff168173ffffffffffffffffffffffffffffffffffffffff16141515611f0257600080fd5b600360008873ffffffffffffffffffffffffffffffffffffffff1673ffffffffffffffffffffffffffffffffffffffff168152602001908152602001600020600081548092919060010191905055508091505095945050505050565b8282611f6982611352565b73ffffffffffffffffffffffffffffffffffffffff168173ffffffffffffffffffffffffffffffffffffffff16141515611fa257600080fd5b826000808773ffffffffffffffffffffffffffffffffffffffff1673ffffffffffffffffffffffffffffffffffffffff16815260200190815260200160002060006101000a81548173ffffffffffffffffffffffffffffffffffffffff021916908373ffffffffffffffffffffffffffffffffffffffff1602179055508473ffffffffffffffffffffffffffffffffffffffff167f38a5a6e68f30ed1ab45860a4afb34bcb2fc00f22ca462d249b8a8d40cda6f7a384600260008973ffffffffffffffffffffffffffffffffffffffff1673ffffffffffffffffffffffffffffffffffffffff16815260200190815260200160002054604051808373ffffffffffffffffffffffffffffffffffffffff1673ffffffffffffffffffffffffffffffffffffffff1681526020018281526020019250505060405180910390a243600260008773ffffffffffffffffffffffffffffffffffffffff1673ffffffffffffffffffffffffffffffffffffffff168152602001908152602001600020819055505050505050565b848461213682611352565b73ffffffffffffffffffffffffffffffffffffffff168173ffffffffffffffffffffffffffffffffffffffff1614151561216f57600080fd5b824201600160008973ffffffffffffffffffffffffffffffffffffffff1673ffffffffffffffffffffffffffffffffffffffff1681526020019081526020016000206000876040518082805190602001908083835b6020831015156121e957805182526020820191506020810190506020830392506121c4565b6001836020036101000a03801982511681845116808217855250505050505090500191505060405180910390206000191660001916815260200190815260200160002060008673ffffffffffffffffffffffffffffffffffffffff1673ffffffffffffffffffffffffffffffffffffffff168152602001908152602001600020819055508673ffffffffffffffffffffffffffffffffffffffff167f5697afae5a61b1e4f36be1b0a0309dc0c28e6e0f5527d2c0a68679deb0d21bf98686864201600260008d73ffffffffffffffffffffffffffffffffffffffff1673ffffffffffffffffffffffffffffffffffffffff1681526020019081526020016000205460405180806020018573ffffffffffffffffffffffffffffffffffffffff1673ffffffffffffffffffffffffffffffffffffffff168152602001848152602001838152602001828103825286818151815260200191508051906020019080838360005b8381101561236857808201518184015260208101905061234d565b50505050905090810190601f1680156123955780820380516001836020036101000a031916815260200191505b509550505050505060405180910390a243600260008973ffffffffffffffffffffffffffffffffffffffff1673ffffffffffffffffffffffffffffffffffffffff1681526020019081526020016000208190555050505050505050565b83836123fd82611352565b73ffffffffffffffffffffffffffffffffffffffff168173ffffffffffffffffffffffffffffffffffffffff1614151561243657600080fd5b6000600160008873ffffffffffffffffffffffffffffffffffffffff1673ffffffffffffffffffffffffffffffffffffffff1681526020019081526020016000206000866040518082805190602001908083835b6020831015156124af578051825260208201915060208101905060208303925061248a565b6001836020036101000a03801982511681845116808217855250505050505090500191505060405180910390206000191660001916815260200190815260200160002060008573ffffffffffffffffffffffffffffffffffffffff1673ffffffffffffffffffffffffffffffffffffffff168152602001908152602001600020819055508573ffffffffffffffffffffffffffffffffffffffff167f5697afae5a61b1e4f36be1b0a0309dc0c28e6e0f5527d2c0a68679deb0d21bf985856000600260008c73ffffffffffffffffffffffffffffffffffffffff1673ffffffffffffffffffffffffffffffffffffffff1681526020019081526020016000205460405180806020018573ffffffffffffffffffffffffffffffffffffffff1673ffffffffffffffffffffffffffffffffffffffff168152602001848152602001838152602001828103825286818151815260200191508051906020019080838360005b8381101561262d578082015181840152602081019050612612565b50505050905090810190601f16801561265a5780820380516001836020036101000a031916815260200191505b509550505050505060405180910390a243600260008873ffffffffffffffffffffffffffffffffffffffff1673ffffffffffffffffffffffffffffffffffffffff16815260200190815260200160002081905550505050505050565b83836126c182611352565b73ffffffffffffffffffffffffffffffffffffffff168173ffffffffffffffffffffffffffffffffffffffff161415156126fa57600080fd5b8573ffffffffffffffffffffffffffffffffffffffff167fe3cf3321991c9bb5c44a59a2cd69c096405984c1293b5e247a0430f1b28d887b85856000600260008c73ffffffffffffffffffffffffffffffffffffffff1673ffffffffffffffffffffffffffffffffffffffff16815260200190815260200160002054604051808060200180602001858152602001848152602001838103835287818151815260200191508051906020019080838360005b838110156127c65780820151818401526020810190506127ab565b50505050905090810190601f1680156127f35780820380516001836020036101000a031916815260200191505b50838103825286818151815260200191508051906020019080838360005b8381101561282c578082015181840152602081019050612811565b50505050905090810190601f1680156128595780820380516001836020036101000a031916815260200191505b50965050505050505060405180910390a243600260008873ffffffffffffffffffffffffffffffffffffffff1673ffffffffffffffffffffffffffffffffffffffff168152602001908152602001600020819055505050505050505600a165627a7a723058203f7b8ca314a4654a95ebbd14d79d2d8a47ea0f619772ae2760d5100d5b3c79850029",
  "source": "pragma solidity ^0.4.4;\n\ncontract EthereumDIDRegistry {\n\n  mapping(address => address) public owners;\n  mapping(address => mapping(bytes32 => mapping(address => uint))) public delegates;\n  mapping(address => uint) public changed;\n  mapping(address => uint) public nonce;\n\n  modifier onlyOwner(address identity, address actor) {\n    require (actor == identityOwner(identity));\n    _;\n  }\n\n  event DIDOwnerChanged(\n    address indexed identity,\n    address owner,\n    uint previousChange\n  );\n\n  event DIDDelegateChanged(\n    address indexed identity,\n    string delegateType,\n    address delegate,\n    uint validTo,\n    uint previousChange\n  );\n\n  event DIDAttributeChanged(\n    address indexed identity,\n    string name,\n    bytes value,\n    uint validTo,\n    uint previousChange\n  );\n\n  function EthereumDIDRegistry() public {\n  }\n\n  function identityOwner(address identity) public view returns(address) {\n     address owner = owners[identity];\n     if (owner != 0x0) {\n       return owner;\n     }\n     return identity;\n  }\n\n  function checkSignature(address identity, uint8 sigV, bytes32 sigR, bytes32 sigS, bytes32 hash) internal returns(address) {\n    address signer = ecrecover(hash, sigV, sigR, sigS);\n    require(signer == identityOwner(identity));\n    nonce[identity]++;\n    return signer;\n  }\n\n  function validDelegate(address identity, string delegateType, address delegate) public view returns(bool) {\n    uint validity = delegates[identity][keccak256(delegateType)][delegate];\n    return (validity >= block.timestamp);\n  }\n\n  function validDelegateSignature(address identity, string delegateType, uint8 sigV, bytes32 sigR, bytes32 sigS, bytes32 hash) public returns(address) {\n    address signer = ecrecover(hash, sigV, sigR, sigS);\n    require(validDelegate(identity, delegateType, signer));\n    nonce[signer]++;\n    return signer;\n  }\n\n  function changeOwner(address identity, address actor, address newOwner) internal onlyOwner(identity, actor) {\n    owners[identity] = newOwner;\n    DIDOwnerChanged(identity, newOwner, changed[identity]);\n    changed[identity] = block.number;\n  }\n\n  function changeOwner(address identity, address newOwner) public {\n    changeOwner(identity, msg.sender, newOwner);\n  }\n\n  function changeOwnerSigned(address identity, uint8 sigV, bytes32 sigR, bytes32 sigS, address newOwner) public {\n    bytes32 hash = keccak256(byte(0x19), byte(0), this, nonce[identityOwner(identity)], identity, \"changeOwner\", newOwner); \n    changeOwner(identity, checkSignature(identity, sigV, sigR, sigS, hash), newOwner);\n  }\n\n  function addDelegate(address identity, address actor, string delegateType, address delegate, uint validity ) internal onlyOwner(identity, actor) {\n    delegates[identity][keccak256(delegateType)][delegate] = block.timestamp + validity;\n    DIDDelegateChanged(identity, delegateType, delegate, block.timestamp + validity, changed[identity]);\n    changed[identity] = block.number;\n  }\n\n  function addDelegate(address identity, string delegateType, address delegate, uint validity) public {\n    addDelegate(identity, msg.sender, delegateType, delegate, validity);\n  }\n\n  function addDelegateSigned(address identity, uint8 sigV, bytes32 sigR, bytes32 sigS, string delegateType, address delegate, uint validity) public {\n    bytes32 hash = keccak256(byte(0x19), byte(0), this, nonce[identityOwner(identity)], identity, \"addDelegate\", delegateType, delegate, validity); \n    addDelegate(identity, checkSignature(identity, sigV, sigR, sigS, hash), delegateType, delegate, validity);\n  }\n\n  function revokeDelegate(address identity, address actor, string delegateType, address delegate) internal onlyOwner(identity, actor) {\n    delegates[identity][keccak256(delegateType)][delegate] = 0;\n    DIDDelegateChanged(identity, delegateType, delegate, 0, changed[identity]);\n    changed[identity] = block.number;\n  }\n\n  function revokeDelegate(address identity, string delegateType, address delegate) public {\n    revokeDelegate(identity, msg.sender, delegateType, delegate);\n  }\n\n  function revokeDelegateSigned(address identity, uint8 sigV, bytes32 sigR, bytes32 sigS, string delegateType, address delegate) public {\n    bytes32 hash = keccak256(byte(0x19), byte(0), this, nonce[identityOwner(identity)], identity, \"revokeDelegate\", delegateType, delegate); \n    revokeDelegate(identity, checkSignature(identity, sigV, sigR, sigS, hash), delegateType, delegate);\n  }\n\n  function setAttribute(address identity, address actor, string name, bytes value, uint validity ) internal onlyOwner(identity, actor) {\n    DIDAttributeChanged(identity, name, value, block.timestamp + validity, changed[identity]);\n    changed[identity] = block.number;\n  }\n\n  function setAttribute(address identity, string name, bytes value, uint validity) public {\n    setAttribute(identity, msg.sender, name, value, validity);\n  }\n\n  function setAttributeSigned(address identity, uint8 sigV, bytes32 sigR, bytes32 sigS, string name, bytes value, uint validity) public {\n    bytes32 hash = keccak256(byte(0x19), byte(0), this, nonce[identity], identity, \"setAttribute\", name, value, validity); \n    setAttribute(identity, checkSignature(identity, sigV, sigR, sigS, hash), name, value, validity);\n  }\n\n  function revokeAttribute(address identity, address actor, string name, bytes value ) internal onlyOwner(identity, actor) {\n    DIDAttributeChanged(identity, name, value, 0, changed[identity]);\n    changed[identity] = block.number;\n  }\n\n  function revokeAttribute(address identity, string name, bytes value) public {\n    revokeAttribute(identity, msg.sender, name, value);\n  }\n\n function revokeAttributeSigned(address identity, uint8 sigV, bytes32 sigR, bytes32 sigS, string name, bytes value) public {\n    bytes32 hash = keccak256(byte(0x19), byte(0), this, nonce[identity], identity, \"revokeAttribute\", name, value); \n    revokeAttribute(identity, checkSignature(identity, sigV, sigR, sigS, hash), name, value);\n  }\n\n}\n",
  "sourcePath": "/Users/pelleb/code/consensys/ethereum-did-registry/contracts/EthereumDIDRegistry.sol",
  "compiler": {
    "name": "solc",
    "version": "0.4.19+commit.c4cbbb05.Emscripten.clang"
  },
  "schemaVersion": "1.0.1",
  "updatedAt": "2018-03-31T20:45:29.810Z"
}